{
  "_format": "hh-sol-artifact-1",
  "contractName": "TokenA",
  "sourceName": "contracts/TokenA.sol",
  "abi": [
    {
      "inputs": [],
      "stateMutability": "nonpayable",
      "type": "constructor"
    },
    {
      "inputs": [
        {
          "internalType": "address",
          "name": "spender",
          "type": "address"
        },
        {
          "internalType": "uint256",
          "name": "allowance",
          "type": "uint256"
        },
        {
          "internalType": "uint256",
          "name": "needed",
          "type": "uint256"
        }
      ],
      "name": "ERC20InsufficientAllowance",
      "type": "error"
    },
    {
      "inputs": [
        {
          "internalType": "address",
          "name": "sender",
          "type": "address"
        },
        {
          "internalType": "uint256",
          "name": "balance",
          "type": "uint256"
        },
        {
          "internalType": "uint256",
          "name": "needed",
          "type": "uint256"
        }
      ],
      "name": "ERC20InsufficientBalance",
      "type": "error"
    },
    {
      "inputs": [
        {
          "internalType": "address",
          "name": "approver",
          "type": "address"
        }
      ],
      "name": "ERC20InvalidApprover",
      "type": "error"
    },
    {
      "inputs": [
        {
          "internalType": "address",
          "name": "receiver",
          "type": "address"
        }
      ],
      "name": "ERC20InvalidReceiver",
      "type": "error"
    },
    {
      "inputs": [
        {
          "internalType": "address",
          "name": "sender",
          "type": "address"
        }
      ],
      "name": "ERC20InvalidSender",
      "type": "error"
    },
    {
      "inputs": [
        {
          "internalType": "address",
          "name": "spender",
          "type": "address"
        }
      ],
      "name": "ERC20InvalidSpender",
      "type": "error"
    },
    {
      "inputs": [
        {
          "internalType": "address",
          "name": "owner",
          "type": "address"
        }
      ],
      "name": "OwnableInvalidOwner",
      "type": "error"
    },
    {
      "inputs": [
        {
          "internalType": "address",
          "name": "account",
          "type": "address"
        }
      ],
      "name": "OwnableUnauthorizedAccount",
      "type": "error"
    },
    {
      "anonymous": false,
      "inputs": [
        {
          "indexed": true,
          "internalType": "address",
          "name": "owner",
          "type": "address"
        },
        {
          "indexed": true,
          "internalType": "address",
          "name": "spender",
          "type": "address"
        },
        {
          "indexed": false,
          "internalType": "uint256",
          "name": "value",
          "type": "uint256"
        }
      ],
      "name": "Approval",
      "type": "event"
    },
    {
      "anonymous": false,
      "inputs": [
        {
          "indexed": true,
          "internalType": "address",
          "name": "previousOwner",
          "type": "address"
        },
        {
          "indexed": true,
          "internalType": "address",
          "name": "newOwner",
          "type": "address"
        }
      ],
      "name": "OwnershipTransferred",
      "type": "event"
    },
    {
      "anonymous": false,
      "inputs": [
        {
          "indexed": true,
          "internalType": "address",
          "name": "from",
          "type": "address"
        },
        {
          "indexed": true,
          "internalType": "address",
          "name": "to",
          "type": "address"
        },
        {
          "indexed": false,
          "internalType": "uint256",
          "name": "value",
          "type": "uint256"
        }
      ],
      "name": "Transfer",
      "type": "event"
    },
    {
      "inputs": [],
      "name": "MAX_FAUCET_AMOUNT",
      "outputs": [
        {
          "internalType": "uint256",
          "name": "",
          "type": "uint256"
        }
      ],
      "stateMutability": "view",
      "type": "function"
    },
    {
      "inputs": [],
      "name": "MAX_REWARD_AMOUNT",
      "outputs": [
        {
          "internalType": "uint256",
          "name": "",
          "type": "uint256"
        }
      ],
      "stateMutability": "view",
      "type": "function"
    },
    {
      "inputs": [],
      "name": "TOTAL_SUPPLY",
      "outputs": [
        {
          "internalType": "uint256",
          "name": "",
          "type": "uint256"
        }
      ],
      "stateMutability": "view",
      "type": "function"
    },
    {
      "inputs": [
        {
          "internalType": "address",
          "name": "owner",
          "type": "address"
        },
        {
          "internalType": "address",
          "name": "spender",
          "type": "address"
        }
      ],
      "name": "allowance",
      "outputs": [
        {
          "internalType": "uint256",
          "name": "",
          "type": "uint256"
        }
      ],
      "stateMutability": "view",
      "type": "function"
    },
    {
      "inputs": [
        {
          "internalType": "address",
          "name": "spender",
          "type": "address"
        },
        {
          "internalType": "uint256",
          "name": "value",
          "type": "uint256"
        }
      ],
      "name": "approve",
      "outputs": [
        {
          "internalType": "bool",
          "name": "",
          "type": "bool"
        }
      ],
      "stateMutability": "nonpayable",
      "type": "function"
    },
    {
      "inputs": [
        {
          "internalType": "address",
          "name": "account",
          "type": "address"
        }
      ],
      "name": "balanceOf",
      "outputs": [
        {
          "internalType": "uint256",
          "name": "",
          "type": "uint256"
        }
      ],
      "stateMutability": "view",
      "type": "function"
    },
    {
      "inputs": [],
      "name": "decimals",
      "outputs": [
        {
          "internalType": "uint8",
          "name": "",
          "type": "uint8"
        }
      ],
      "stateMutability": "view",
      "type": "function"
    },
    {
      "inputs": [
        {
          "internalType": "uint256",
          "name": "amount",
          "type": "uint256"
        }
      ],
      "name": "faucet",
      "outputs": [],
      "stateMutability": "nonpayable",
      "type": "function"
    },
    {
      "inputs": [],
      "name": "name",
      "outputs": [
        {
          "internalType": "string",
          "name": "",
          "type": "string"
        }
      ],
      "stateMutability": "view",
      "type": "function"
    },
    {
      "inputs": [],
      "name": "owner",
      "outputs": [
        {
          "internalType": "address",
          "name": "",
          "type": "address"
        }
      ],
      "stateMutability": "view",
      "type": "function"
    },
    {
      "inputs": [],
      "name": "renounceOwnership",
      "outputs": [],
      "stateMutability": "nonpayable",
      "type": "function"
    },
    {
      "inputs": [
        {
          "internalType": "address",
          "name": "_stakingContract",
          "type": "address"
        }
      ],
      "name": "setStakingContract",
      "outputs": [],
      "stateMutability": "nonpayable",
      "type": "function"
    },
    {
      "inputs": [],
      "name": "stakingContract",
      "outputs": [
        {
          "internalType": "address",
          "name": "",
          "type": "address"
        }
      ],
      "stateMutability": "view",
      "type": "function"
    },
    {
      "inputs": [],
      "name": "symbol",
      "outputs": [
        {
          "internalType": "string",
          "name": "",
          "type": "string"
        }
      ],
      "stateMutability": "view",
      "type": "function"
    },
    {
      "inputs": [],
      "name": "totalSupply",
      "outputs": [
        {
          "internalType": "uint256",
          "name": "",
          "type": "uint256"
        }
      ],
      "stateMutability": "view",
      "type": "function"
    },
    {
      "inputs": [
        {
          "internalType": "address",
          "name": "to",
          "type": "address"
        },
        {
          "internalType": "uint256",
          "name": "value",
          "type": "uint256"
        }
      ],
      "name": "transfer",
      "outputs": [
        {
          "internalType": "bool",
          "name": "",
          "type": "bool"
        }
      ],
      "stateMutability": "nonpayable",
      "type": "function"
    },
    {
      "inputs": [
        {
          "internalType": "address",
          "name": "from",
          "type": "address"
        },
        {
          "internalType": "address",
          "name": "to",
          "type": "address"
        },
        {
          "internalType": "uint256",
          "name": "value",
          "type": "uint256"
        }
      ],
      "name": "transferFrom",
      "outputs": [
        {
          "internalType": "bool",
          "name": "",
          "type": "bool"
        }
      ],
      "stateMutability": "nonpayable",
      "type": "function"
    },
    {
      "inputs": [
        {
          "internalType": "address",
          "name": "newOwner",
          "type": "address"
        }
      ],
      "name": "transferOwnership",
      "outputs": [],
      "stateMutability": "nonpayable",
      "type": "function"
    },
    {
      "inputs": [
        {
          "internalType": "address",
          "name": "to",
          "type": "address"
        },
        {
          "internalType": "uint256",
          "name": "amount",
          "type": "uint256"
        }
      ],
      "name": "transferReward",
      "outputs": [
        {
          "internalType": "bool",
          "name": "",
          "type": "bool"
        }
      ],
      "stateMutability": "nonpayable",
      "type": "function"
    }
  ],
  "bytecode": "0x60806040523480156200001157600080fd5b503360405180604001604052806007815260200166546f6b656e204160c81b81525060405180604001604052806003815260200162544b4160e81b815250816003908162000060919062000334565b5060046200006f828262000334565b5050506001600160a01b038116620000a257604051631e4fbdf760e01b8152600060048201526024015b60405180910390fd5b620000ad81620000cc565b50620000c6306b033b2e3c9fd0803ce80000006200011e565b62000428565b600580546001600160a01b038381166001600160a01b0319831681179093556040519116919082907f8be0079c531659141344cd1fd0a4f28419497f9722a3daafe3b4186f6b6457e090600090a35050565b6001600160a01b0382166200014a5760405163ec442f0560e01b81526000600482015260240162000099565b62000158600083836200015c565b5050565b6001600160a01b0383166200018b5780600260008282546200017f919062000400565b90915550620001ff9050565b6001600160a01b03831660009081526020819052604090205481811015620001e05760405163391434e360e21b81526001600160a01b0385166004820152602481018290526044810183905260640162000099565b6001600160a01b03841660009081526020819052604090209082900390555b6001600160a01b0382166200021d576002805482900390556200023c565b6001600160a01b03821660009081526020819052604090208054820190555b816001600160a01b0316836001600160a01b03167fddf252ad1be2c89b69c2b068fc378daa952ba7f163c4a11628f55a4df523b3ef836040516200028291815260200190565b60405180910390a3505050565b634e487b7160e01b600052604160045260246000fd5b600181811c90821680620002ba57607f821691505b602082108103620002db57634e487b7160e01b600052602260045260246000fd5b50919050565b601f8211156200032f57600081815260208120601f850160051c810160208610156200030a5750805b601f850160051c820191505b818110156200032b5782815560010162000316565b5050505b505050565b81516001600160401b038111156200035057620003506200028f565b6200036881620003618454620002a5565b84620002e1565b602080601f831160018114620003a05760008415620003875750858301515b600019600386901b1c1916600185901b1785556200032b565b600085815260208120601f198616915b82811015620003d157888601518255948401946001909101908401620003b0565b5085821015620003f05787850151600019600388901b60f8161c191681555b5050505050600190811b01905550565b808201808211156200042257634e487b7160e01b600052601160045260246000fd5b92915050565b610b8c80620004386000396000f3fe608060405234801561001057600080fd5b50600436106101215760003560e01c8063715018a6116100ad578063a04f6b4b11610071578063a04f6b4b14610259578063a9059cbb1461026a578063dd62ed3e1461027d578063ee99205c146102b6578063f2fde38b146102c957600080fd5b8063715018a6146101fe5780638da5cb5b14610206578063902d55a51461022b57806395d89b411461023e5780639dd373b91461024657600080fd5b806323b872dd116100f457806323b872dd1461018c578063313ce5671461019f57806357915897146101ae5780636376d2d8146101c357806370a08231146101d557600080fd5b806306fdde0314610126578063095ea7b31461014457806315490ebb1461016757806318160ddd1461017a575b600080fd5b61012e6102dc565b60405161013b9190610975565b60405180910390f35b6101576101523660046109df565b61036e565b604051901515815260200161013b565b6101576101753660046109df565b610388565b6002545b60405190815260200161013b565b61015761019a366004610a09565b6104a7565b6040516012815260200161013b565b6101c16101bc366004610a45565b6104cb565b005b61017e6a0422ca8b0a00a42500000081565b61017e6101e3366004610a5e565b6001600160a01b031660009081526020819052604090205490565b6101c1610572565b6005546001600160a01b03165b6040516001600160a01b03909116815260200161013b565b61017e6b033b2e3c9fd0803ce800000081565b61012e610586565b6101c1610254366004610a5e565b610595565b61017e69d3c21bcecceda100000081565b6101576102783660046109df565b6105bf565b61017e61028b366004610a80565b6001600160a01b03918216600090815260016020908152604080832093909416825291909152205490565b600654610213906001600160a01b031681565b6101c16102d7366004610a5e565b6105cd565b6060600380546102eb90610ab3565b80601f016020809104026020016040519081016040528092919081815260200182805461031790610ab3565b80156103645780601f1061033957610100808354040283529160200191610364565b820191906000526020600020905b81548152906001019060200180831161034757829003601f168201915b5050505050905090565b60003361037c818585610608565b60019150505b92915050565b600069d3c21bcecceda10000008211156103f95760405162461bcd60e51b815260206004820152602760248201527f5374616b696e673a20416d6f756e742065786365656473206d6178696d756d20604482015266185b1b1bddd95960ca1b60648201526084015b60405180910390fd5b306000908152602081905260409020548211156104285760405162461bcd60e51b81526004016103f090610aed565b6006546001600160a01b031633146104935760405162461bcd60e51b815260206004820152602860248201527f4f6e6c79207374616b696e6720636f6e74726163742063616e207472616e7366604482015267195c94995dd85c9960c21b60648201526084016103f0565b61049e30848461061a565b50600192915050565b6000336104b5858285610679565b6104c085858561061a565b506001949350505050565b6a0422ca8b0a00a4250000008111156105355760405162461bcd60e51b815260206004820152602660248201527f4661756365743a20416d6f756e742065786365656473206d6178696d756d20616044820152651b1b1bddd95960d21b60648201526084016103f0565b306000908152602081905260409020548111156105645760405162461bcd60e51b81526004016103f090610aed565b61056f30338361061a565b50565b61057a6106f7565b6105846000610724565b565b6060600480546102eb90610ab3565b61059d6106f7565b600680546001600160a01b0319166001600160a01b0392909216919091179055565b60003361037c81858561061a565b6105d56106f7565b6001600160a01b0381166105ff57604051631e4fbdf760e01b8152600060048201526024016103f0565b61056f81610724565b6106158383836001610776565b505050565b6001600160a01b03831661064457604051634b637e8f60e11b8152600060048201526024016103f0565b6001600160a01b03821661066e5760405163ec442f0560e01b8152600060048201526024016103f0565b61061583838361084b565b6001600160a01b0383811660009081526001602090815260408083209386168352929052205460001981146106f157818110156106e257604051637dc7a0d960e11b81526001600160a01b038416600482015260248101829052604481018390526064016103f0565b6106f184848484036000610776565b50505050565b6005546001600160a01b031633146105845760405163118cdaa760e01b81523360048201526024016103f0565b600580546001600160a01b038381166001600160a01b0319831681179093556040519116919082907f8be0079c531659141344cd1fd0a4f28419497f9722a3daafe3b4186f6b6457e090600090a35050565b6001600160a01b0384166107a05760405163e602df0560e01b8152600060048201526024016103f0565b6001600160a01b0383166107ca57604051634a1406b160e11b8152600060048201526024016103f0565b6001600160a01b03808516600090815260016020908152604080832093871683529290522082905580156106f157826001600160a01b0316846001600160a01b03167f8c5be1e5ebec7d5bd14f71427d1e84f3dd0314c0f7b2291e5b200ac8c7c3b9258460405161083d91815260200190565b60405180910390a350505050565b6001600160a01b03831661087657806002600082825461086b9190610b35565b909155506108e89050565b6001600160a01b038316600090815260208190526040902054818110156108c95760405163391434e360e21b81526001600160a01b038516600482015260248101829052604481018390526064016103f0565b6001600160a01b03841660009081526020819052604090209082900390555b6001600160a01b03821661090457600280548290039055610923565b6001600160a01b03821660009081526020819052604090208054820190555b816001600160a01b0316836001600160a01b03167fddf252ad1be2c89b69c2b068fc378daa952ba7f163c4a11628f55a4df523b3ef8360405161096891815260200190565b60405180910390a3505050565b600060208083528351808285015260005b818110156109a257858101830151858201604001528201610986565b506000604082860101526040601f19601f8301168501019250505092915050565b80356001600160a01b03811681146109da57600080fd5b919050565b600080604083850312156109f257600080fd5b6109fb836109c3565b946020939093013593505050565b600080600060608486031215610a1e57600080fd5b610a27846109c3565b9250610a35602085016109c3565b9150604084013590509250925092565b600060208284031215610a5757600080fd5b5035919050565b600060208284031215610a7057600080fd5b610a79826109c3565b9392505050565b60008060408385031215610a9357600080fd5b610a9c836109c3565b9150610aaa602084016109c3565b90509250929050565b600181811c90821680610ac757607f821691505b602082108103610ae757634e487b7160e01b600052602260045260246000fd5b50919050565b60208082526028908201527f4661756365743a20496e73756666696369656e742062616c616e636520696e2060408201526718dbdb9d1c9858dd60c21b606082015260800190565b8082018082111561038257634e487b7160e01b600052601160045260246000fdfea26469706673582212204dd5da5277c3feca0ed5e162e1d65a0b39c7bf67a1373cb7bb60eaa63279171a64736f6c63430008140033",
  "linkReferences": {},
  "deployedLinkReferences": {}
}