{
  "_format": "hh-sol-artifact-1",
  "contractName": "Staking",
  "sourceName": "contracts/Staking.sol",
  "abi": [
    {
      "inputs": [
        {
          "internalType": "address",
          "name": "_tokenA",
          "type": "address"
        },
        {
          "internalType": "address",
          "name": "_nftB",
          "type": "address"
        }
      ],
      "stateMutability": "nonpayable",
      "type": "constructor"
    },
    {
      "inputs": [],
      "name": "MathOverflowedMulDiv",
      "type": "error"
    },
    {
      "inputs": [
        {
          "internalType": "address",
          "name": "owner",
          "type": "address"
        }
      ],
      "name": "OwnableInvalidOwner",
      "type": "error"
    },
    {
      "inputs": [
        {
          "internalType": "address",
          "name": "account",
          "type": "address"
        }
      ],
      "name": "OwnableUnauthorizedAccount",
      "type": "error"
    },
    {
      "anonymous": false,
      "inputs": [
        {
          "indexed": false,
          "internalType": "uint256",
          "name": "newBaseAPR",
          "type": "uint256"
        }
      ],
      "name": "APRUpdated",
      "type": "event"
    },
    {
      "anonymous": false,
      "inputs": [
        {
          "indexed": true,
          "internalType": "address",
          "name": "user",
          "type": "address"
        },
        {
          "indexed": false,
          "internalType": "uint256",
          "name": "amount",
          "type": "uint256"
        }
      ],
      "name": "Deposited",
      "type": "event"
    },
    {
      "anonymous": false,
      "inputs": [
        {
          "indexed": true,
          "internalType": "address",
          "name": "user",
          "type": "address"
        },
        {
          "indexed": false,
          "internalType": "uint256",
          "name": "tokenId",
          "type": "uint256"
        }
      ],
      "name": "NFTDeposited",
      "type": "event"
    },
    {
      "anonymous": false,
      "inputs": [
        {
          "indexed": true,
          "internalType": "address",
          "name": "user",
          "type": "address"
        },
        {
          "indexed": false,
          "internalType": "uint256",
          "name": "tokenId",
          "type": "uint256"
        }
      ],
      "name": "NFTMinted",
      "type": "event"
    },
    {
      "anonymous": false,
      "inputs": [
        {
          "indexed": true,
          "internalType": "address",
          "name": "user",
          "type": "address"
        },
        {
          "indexed": false,
          "internalType": "uint256",
          "name": "tokenId",
          "type": "uint256"
        }
      ],
      "name": "NFTWithdrawn",
      "type": "event"
    },
    {
      "anonymous": false,
      "inputs": [
        {
          "indexed": true,
          "internalType": "address",
          "name": "previousOwner",
          "type": "address"
        },
        {
          "indexed": true,
          "internalType": "address",
          "name": "newOwner",
          "type": "address"
        }
      ],
      "name": "OwnershipTransferred",
      "type": "event"
    },
    {
      "anonymous": false,
      "inputs": [
        {
          "indexed": true,
          "internalType": "address",
          "name": "user",
          "type": "address"
        },
        {
          "indexed": false,
          "internalType": "uint256",
          "name": "reward",
          "type": "uint256"
        }
      ],
      "name": "RewardClaimed",
      "type": "event"
    },
    {
      "anonymous": false,
      "inputs": [
        {
          "indexed": true,
          "internalType": "address",
          "name": "user",
          "type": "address"
        },
        {
          "indexed": false,
          "internalType": "uint256",
          "name": "amount",
          "type": "uint256"
        },
        {
          "indexed": false,
          "internalType": "uint256",
          "name": "reward",
          "type": "uint256"
        }
      ],
      "name": "Withdrawn",
      "type": "event"
    },
    {
      "inputs": [],
      "name": "LOCK_PERIOD",
      "outputs": [
        {
          "internalType": "uint256",
          "name": "",
          "type": "uint256"
        }
      ],
      "stateMutability": "view",
      "type": "function"
    },
    {
      "inputs": [],
      "name": "NFT_THRESHOLD",
      "outputs": [
        {
          "internalType": "uint256",
          "name": "",
          "type": "uint256"
        }
      ],
      "stateMutability": "view",
      "type": "function"
    },
    {
      "inputs": [],
      "name": "baseAPR",
      "outputs": [
        {
          "internalType": "uint256",
          "name": "",
          "type": "uint256"
        }
      ],
      "stateMutability": "view",
      "type": "function"
    },
    {
      "inputs": [
        {
          "internalType": "address",
          "name": "user",
          "type": "address"
        }
      ],
      "name": "calculateReward",
      "outputs": [
        {
          "internalType": "uint256",
          "name": "",
          "type": "uint256"
        }
      ],
      "stateMutability": "view",
      "type": "function"
    },
    {
      "inputs": [],
      "name": "claimReward",
      "outputs": [],
      "stateMutability": "nonpayable",
      "type": "function"
    },
    {
      "inputs": [
        {
          "internalType": "uint256",
          "name": "amount",
          "type": "uint256"
        }
      ],
      "name": "deposit",
      "outputs": [],
      "stateMutability": "nonpayable",
      "type": "function"
    },
    {
      "inputs": [
        {
          "internalType": "uint256",
          "name": "tokenId",
          "type": "uint256"
        }
      ],
      "name": "depositNFT",
      "outputs": [],
      "stateMutability": "nonpayable",
      "type": "function"
    },
    {
      "inputs": [],
      "name": "getContractBalance",
      "outputs": [
        {
          "internalType": "uint256",
          "name": "",
          "type": "uint256"
        }
      ],
      "stateMutability": "view",
      "type": "function"
    },
    {
      "inputs": [
        {
          "internalType": "address",
          "name": "user",
          "type": "address"
        }
      ],
      "name": "getCurrentAPR",
      "outputs": [
        {
          "internalType": "uint256",
          "name": "",
          "type": "uint256"
        }
      ],
      "stateMutability": "view",
      "type": "function"
    },
    {
      "inputs": [
        {
          "internalType": "address",
          "name": "user",
          "type": "address"
        }
      ],
      "name": "getMintedNFTCount",
      "outputs": [
        {
          "internalType": "uint256",
          "name": "",
          "type": "uint256"
        }
      ],
      "stateMutability": "view",
      "type": "function"
    },
    {
      "inputs": [
        {
          "internalType": "address",
          "name": "user",
          "type": "address"
        }
      ],
      "name": "getRemainingLockTime",
      "outputs": [
        {
          "internalType": "uint256",
          "name": "",
          "type": "uint256"
        }
      ],
      "stateMutability": "view",
      "type": "function"
    },
    {
      "inputs": [
        {
          "internalType": "address",
          "name": "user",
          "type": "address"
        }
      ],
      "name": "getStakeDetails",
      "outputs": [
        {
          "internalType": "uint256",
          "name": "stakedAmount",
          "type": "uint256"
        },
        {
          "internalType": "uint256",
          "name": "pendingReward",
          "type": "uint256"
        },
        {
          "internalType": "uint256",
          "name": "calculatedReward",
          "type": "uint256"
        },
        {
          "internalType": "uint256",
          "name": "lockEndTime",
          "type": "uint256"
        }
      ],
      "stateMutability": "view",
      "type": "function"
    },
    {
      "inputs": [
        {
          "internalType": "address",
          "name": "user",
          "type": "address"
        }
      ],
      "name": "getStakedNFTCount",
      "outputs": [
        {
          "internalType": "uint256",
          "name": "",
          "type": "uint256"
        }
      ],
      "stateMutability": "view",
      "type": "function"
    },
    {
      "inputs": [
        {
          "internalType": "address",
          "name": "",
          "type": "address"
        }
      ],
      "name": "mintedNFTs",
      "outputs": [
        {
          "internalType": "uint256",
          "name": "",
          "type": "uint256"
        }
      ],
      "stateMutability": "view",
      "type": "function"
    },
    {
      "inputs": [],
      "name": "nftB",
      "outputs": [
        {
          "internalType": "contract NFTB",
          "name": "",
          "type": "address"
        }
      ],
      "stateMutability": "view",
      "type": "function"
    },
    {
      "inputs": [],
      "name": "nftBonusAPR",
      "outputs": [
        {
          "internalType": "uint256",
          "name": "",
          "type": "uint256"
        }
      ],
      "stateMutability": "view",
      "type": "function"
    },
    {
      "inputs": [],
      "name": "owner",
      "outputs": [
        {
          "internalType": "address",
          "name": "",
          "type": "address"
        }
      ],
      "stateMutability": "view",
      "type": "function"
    },
    {
      "inputs": [],
      "name": "renounceOwnership",
      "outputs": [],
      "stateMutability": "nonpayable",
      "type": "function"
    },
    {
      "inputs": [
        {
          "internalType": "address",
          "name": "",
          "type": "address"
        },
        {
          "internalType": "uint256",
          "name": "",
          "type": "uint256"
        }
      ],
      "name": "stakedNFTs",
      "outputs": [
        {
          "internalType": "uint256",
          "name": "",
          "type": "uint256"
        }
      ],
      "stateMutability": "view",
      "type": "function"
    },
    {
      "inputs": [
        {
          "internalType": "address",
          "name": "",
          "type": "address"
        }
      ],
      "name": "stakes",
      "outputs": [
        {
          "internalType": "uint256",
          "name": "amount",
          "type": "uint256"
        },
        {
          "internalType": "uint256",
          "name": "timestamp",
          "type": "uint256"
        },
        {
          "internalType": "uint256",
          "name": "nftDepositTime",
          "type": "uint256"
        },
        {
          "internalType": "uint256",
          "name": "nftCount",
          "type": "uint256"
        },
        {
          "internalType": "uint256",
          "name": "pendingReward",
          "type": "uint256"
        },
        {
          "internalType": "uint256",
          "name": "lockEndTime",
          "type": "uint256"
        },
        {
          "internalType": "uint256",
          "name": "mintedNFTCount",
          "type": "uint256"
        },
        {
          "internalType": "uint256",
          "name": "totalStakedAmount",
          "type": "uint256"
        }
      ],
      "stateMutability": "view",
      "type": "function"
    },
    {
      "inputs": [],
      "name": "tokenA",
      "outputs": [
        {
          "internalType": "contract TokenA",
          "name": "",
          "type": "address"
        }
      ],
      "stateMutability": "view",
      "type": "function"
    },
    {
      "inputs": [
        {
          "internalType": "address",
          "name": "newOwner",
          "type": "address"
        }
      ],
      "name": "transferOwnership",
      "outputs": [],
      "stateMutability": "nonpayable",
      "type": "function"
    },
    {
      "inputs": [
        {
          "internalType": "uint256",
          "name": "newBaseAPR",
          "type": "uint256"
        }
      ],
      "name": "updateBaseAPR",
      "outputs": [],
      "stateMutability": "nonpayable",
      "type": "function"
    },
    {
      "inputs": [],
      "name": "withdraw",
      "outputs": [],
      "stateMutability": "nonpayable",
      "type": "function"
    },
    {
      "inputs": [
        {
          "internalType": "uint256[]",
          "name": "tokenIds",
          "type": "uint256[]"
        }
      ],
      "name": "withdrawNFTs",
      "outputs": [],
      "stateMutability": "nonpayable",
      "type": "function"
    }
  ],
  "bytecode": "0x608060405261032060035560c86004553480156200001c57600080fd5b5060405162001ac838038062001ac88339810160408190526200003f9162000111565b33806200006657604051631e4fbdf760e01b81526000600482015260240160405180910390fd5b6200007181620000a4565b50600180546001600160a01b039384166001600160a01b0319918216179091556002805492909316911617905562000149565b600080546001600160a01b038381166001600160a01b0319831681178455604051919092169283917f8be0079c531659141344cd1fd0a4f28419497f9722a3daafe3b4186f6b6457e09190a35050565b80516001600160a01b03811681146200010c57600080fd5b919050565b600080604083850312156200012557600080fd5b6200013083620000f4565b91506200014060208401620000f4565b90509250929050565b61196f80620001596000396000f3fe608060405234801561001057600080fd5b50600436106101735760003560e01c80638da5cb5b116100de578063c2baf73311610097578063e91a7ca611610071578063e91a7ca61461039f578063f2fde38b146103b2578063f41322ac146103c5578063f7060048146103f857600080fd5b8063c2baf73314610366578063cf9fe22b14610379578063d82e39621461038c57600080fd5b80638da5cb5b146102dd57806393c49484146102ee578063b390bd91146102ff578063b6b55f251461032b578063b88a802f1461033e578063ba060bed1461034657600080fd5b80633ccfd60b116101305780633ccfd60b1461029e57806347304494146102a857806358ac0e80146102bb5780636f9fb98a146102c45780637120f294146102cc578063715018a6146102d557600080fd5b806301d650e114610178578063096ff61c1461019e5780630fc63d10146101c757806316934fc4146101f25780631820cabb1461028357806332e2cea81461028b575b600080fd5b61018b610186366004611710565b61040b565b6040519081526020015b60405180910390f35b61018b6101ac366004611710565b6001600160a01b031660009081526007602052604090205490565b6001546101da906001600160a01b031681565b6040516001600160a01b039091168152602001610195565b610248610200366004611710565b60056020528060005260406000206000915090508060000154908060010154908060020154908060030154908060040154908060050154908060060154908060070154905088565b604080519889526020890197909752958701949094526060860192909252608085015260a084015260c083015260e082015261010001610195565b61018b601e81565b6002546101da906001600160a01b031681565b6102a661045e565b005b61018b6102b6366004611710565b61086a565b61018b60035481565b61018b6108b2565b61018b60045481565b6102a6610924565b6000546001600160a01b03166101da565b61018b69d3c21bcecceda100000081565b61018b61030d366004611710565b6001600160a01b031660009081526005602052604090206003015490565b6102a661033936600461172d565b610938565b6102a6610c34565b61018b610354366004611710565b60076020526000908152604090205481565b6102a661037436600461172d565b610e04565b6102a6610387366004611746565b610e47565b61018b61039a366004611710565b6111fb565b6102a66103ad36600461172d565b6112fd565b6102a66103c0366004611710565b6114da565b6103d86103d3366004611710565b611518565b604080519485526020850193909352918301526060820152608001610195565b61018b6104063660046117bb565b611557565b6001600160a01b038116600090815260056020526040812060038101548203610438575050600354919050565b806003015460045461044a91906117fd565b600354610457919061181a565b9392505050565b33600090815260056020526040902080546104b75760405162461bcd60e51b81526020600482015260146024820152734e6f207374616b6520746f20776974686472617760601b60448201526064015b60405180910390fd5b806005015442101561050b5760405162461bcd60e51b815260206004820152601760248201527f546f6b656e7320617265207374696c6c206c6f636b656400000000000000000060448201526064016104ae565b6000816004015461051b336111fb565b610525919061181a565b600154835460405163a9059cbb60e01b815233600482015260248101919091529192506001600160a01b03169063a9059cbb906044016020604051808303816000875af115801561057a573d6000803e3d6000fd5b505050506040513d601f19601f8201168201806040525081019061059e919061182d565b6105ea5760405162461bcd60e51b815260206004820152601d60248201527f5374616b656420616d6f756e74207472616e73666572206661696c656400000060448201526064016104ae565b6001546040516315490ebb60e01b8152336004820152602481018390526001600160a01b03909116906315490ebb906044016020604051808303816000875af115801561063b573d6000803e3d6000fd5b505050506040513d601f19601f8201168201806040525081019061065f919061182d565b6106a45760405162461bcd60e51b815260206004820152601660248201527514995dd85c99081d1c985b9cd9995c8819985a5b195960521b60448201526064016104ae565b60005b3360009081526006602052604090205481101561079a573360009081526006602052604081208054839081106106df576106df61184f565b6000918252602090912001546002546040516323b872dd60e01b81529192506001600160a01b0316906323b872dd9061072090309033908690600401611865565b600060405180830381600087803b15801561073a57600080fd5b505af115801561074e573d6000803e3d6000fd5b50506040518381523392507f2aa1b4c95f3b2da9c955947fca584743ea0d457708fadf209c093061e98c4ccb915060200160405180910390a2508061079281611889565b9150506106a7565b508154604080519182526020820183905233917f92ccf450a286a957af52509bc1c9939d1a6a481783e142e41e2499f0bb66ebc6910160405180910390a260405181815233907f106f923f993c2149d49b4255ff723acafa1f2d94393f561d3eda32ae348f72419060200160405180910390a2336000908152600660205260408120610825916116c9565b50503360009081526005602081905260408220828155600181018390556002810183905560038101839055600481018390559081018290556006810182905560070155565b6001600160a01b038116600090815260056020526040812080541580610894575080600501544210155b156108a25750600092915050565b42816005015461045791906118a2565b6001546040516370a0823160e01b81523060048201526000916001600160a01b0316906370a0823190602401602060405180830381865afa1580156108fb573d6000803e3d6000fd5b505050506040513d601f19601f8201168201806040525081019061091f91906118b5565b905090565b61092c611588565b61093660006115b5565b565b600081116109885760405162461bcd60e51b815260206004820152601d60248201527f416d6f756e74206d7573742062652067726561746572207468616e203000000060448201526064016104ae565b6001546040516323b872dd60e01b81526001600160a01b03909116906323b872dd906109bc90339030908690600401611865565b6020604051808303816000875af11580156109db573d6000803e3d6000fd5b505050506040513d601f19601f820116820180604052508101906109ff919061182d565b610a3d5760405162461bcd60e51b815260206004820152600f60248201526e151c985b9cd9995c8819985a5b1959608a1b60448201526064016104ae565b336000908152600560205260409020805415610a7b576000610a5e336111fb565b905080826004016000828254610a74919061181a565b9091555050505b81816000016000828254610a8f919061181a565b9250508190555081816007016000828254610aaa919061181a565b90915550504260018201819055610ac390601e9061181a565b6005820155600281015415610ad9574260028201555b33600090815260076020819052604082205490830154610b049069d3c21bcecceda1000000906118e4565b610b0e91906118a2565b905060005b81811015610bd5576002546040516340d097c360e01b81523360048201526000916001600160a01b0316906340d097c3906024016020604051808303816000875af1158015610b66573d6000803e3d6000fd5b505050506040513d601f19601f82011682018060405250810190610b8a91906118b5565b60405181815290915033907f4cc0a9c4a99ddc700de1af2c9f916a7cbfdb71f14801ccff94061ad1ef8a80409060200160405180910390a25080610bcd81611889565b915050610b13565b503360009081526007602052604081208054839290610bf590849061181a565b909155505060405183815233907f2da466a7b24304f47e87fa2e1e5a81b9831ce54fec19055ce277ca2f39ba42c49060200160405180910390a2505050565b3360009081526005602052604090208054610c915760405162461bcd60e51b815260206004820152601d60248201527f4e6f207374616b6520746f20636c61696d207265776172642066726f6d00000060448201526064016104ae565b60008160040154610ca1336111fb565b610cab919061181a565b905060008111610cf25760405162461bcd60e51b81526020600482015260126024820152714e6f2072657761726420746f20636c61696d60701b60448201526064016104ae565b6001546040516315490ebb60e01b8152336004820152602481018390526001600160a01b03909116906315490ebb906044016020604051808303816000875af1158015610d43573d6000803e3d6000fd5b505050506040513d601f19601f82011682018060405250810190610d67919061182d565b610dac5760405162461bcd60e51b815260206004820152601660248201527514995dd85c99081d1c985b9cd9995c8819985a5b195960521b60448201526064016104ae565b60006004830155426001830155600282015415610dca574260028301555b60405181815233907f106f923f993c2149d49b4255ff723acafa1f2d94393f561d3eda32ae348f7241906020015b60405180910390a25050565b610e0c611588565b60038190556040518181527f2ec8ccb96042321f3bbdd56e8e4e4339bc07c9c2021e14e18ef12f5db282b37a9060200160405180910390a150565b3360009081526005602052604090206003810154610e9d5760405162461bcd60e51b81526020600482015260136024820152724e6f204e46547320746f20776974686472617760681b60448201526064016104ae565b81610eea5760405162461bcd60e51b815260206004820152601f60248201527f4e6f204e4654732073656c656374656420666f72207769746864726177616c0060448201526064016104ae565b6003810154821115610f535760405162461bcd60e51b815260206004820152602c60248201527f417474656d7074696e6720746f207769746864726177206d6f7265204e46547360448201526b081d1a185b881cdd185ad95960a21b60648201526084016104ae565b6000610f5e336111fb565b905080826004016000828254610f74919061181a565b90915550504260018301556000805b848110156111c9576000868683818110610f9f57610f9f61184f565b9050602002013590506000805b3360009081526006602052604090205481101561116657336000908152600660205260409020805484919083908110610fe757610fe761184f565b906000526020600020015403611154576002546040516323b872dd60e01b81526001600160a01b03909116906323b872dd9061102b90309033908890600401611865565b600060405180830381600087803b15801561104557600080fd5b505af1158015611059573d6000803e3d6000fd5b5050336000908152600660205260409020805490925061107c91506001906118a2565b8154811061108c5761108c61184f565b6000918252602080832090910154338352600690915260409091208054839081106110b9576110b961184f565b60009182526020808320909101929092553381526006909152604090208054806110e5576110e5611906565b60019003818190600052602060002001600090559055336001600160a01b03167f2aa1b4c95f3b2da9c955947fca584743ea0d457708fadf209c093061e98c4ccb8460405161113691815260200190565b60405180910390a28461114881611889565b95505060019150611166565b8061115e81611889565b915050610fac565b50806111b45760405162461bcd60e51b815260206004820152601c60248201527f4e4654206e6f7420666f756e6420696e207374616b6564204e4654730000000060448201526064016104ae565b505080806111c190611889565b915050610f83565b50808360030160008282546111de91906118a2565b90915550506002830154156111f4574260028401555b5050505050565b6001600160a01b0381166000908152600560205260408120805482036112245750600092915050565b600081600101544261123691906118a2565b9050600080836002015411156112dc5760006112858460010154856002015461125f91906118a2565b600354865461126e91906117fd565b61127891906117fd565b600164496cebb800611605565b905060006112c785600201544261129c91906118a2565b86600301546004546112ae91906117fd565b6003546112bb919061181a565b875461126e91906117fd565b90506112d3818361181a565b925050506112f5565b6112f282600354856000015461126e91906117fd565b90505b949350505050565b6002546040516331a9108f60e11b81526004810183905233916001600160a01b031690636352211e90602401602060405180830381865afa158015611346573d6000803e3d6000fd5b505050506040513d601f19601f8201168201806040525081019061136a919061191c565b6001600160a01b0316146113b95760405162461bcd60e51b8152602060048201526016602482015275165bdd48191bdb89dd081bdddb881d1a1a5cc813919560521b60448201526064016104ae565b6002546040516323b872dd60e01b81526001600160a01b03909116906323b872dd906113ed90339030908690600401611865565b600060405180830381600087803b15801561140757600080fd5b505af115801561141b573d6000803e3d6000fd5b50503360009081526005602052604090208054909250159050611460576000611443336111fb565b905080826004016000828254611459919061181a565b9091555050505b42600282015560038101805490600061147883611889565b909155505033600081815260066020908152604080832080546001808201835591855293839020909301869055429285019290925590518481527f1c4b8380f61aea3d5d98cbadaf2e6b2e4f3d8ca8c0fce1290b26ac267158745f9101610df8565b6114e2611588565b6001600160a01b03811661150c57604051631e4fbdf760e01b8152600060048201526024016104ae565b611515816115b5565b50565b6001600160a01b038116600090815260056020526040812080546004820154909290918190611546866111fb565b925080600501549150509193509193565b6006602052816000526040600020818154811061157357600080fd5b90600052602060002001600091509150505481565b6000546001600160a01b031633146109365760405163118cdaa760e01b81523360048201526024016104ae565b600080546001600160a01b038381166001600160a01b0319831681178455604051919092169283917f8be0079c531659141344cd1fd0a4f28419497f9722a3daafe3b4186f6b6457e09190a35050565b600083830281600019858709828110838203039150508060000361163c57838281611632576116326118ce565b0492505050610457565b80841161165c5760405163227bc15360e01b815260040160405180910390fd5b6000848688096000868103871696879004966002600389028118808a02820302808a02820302808a02820302808a02820302808a02820302808a02909103029181900381900460010186841190950394909402919094039290920491909117919091029150509392505050565b508054600082559060005260206000209081019061151591905b808211156116f757600081556001016116e3565b5090565b6001600160a01b038116811461151557600080fd5b60006020828403121561172257600080fd5b8135610457816116fb565b60006020828403121561173f57600080fd5b5035919050565b6000806020838503121561175957600080fd5b823567ffffffffffffffff8082111561177157600080fd5b818501915085601f83011261178557600080fd5b81358181111561179457600080fd5b8660208260051b85010111156117a957600080fd5b60209290920196919550909350505050565b600080604083850312156117ce57600080fd5b82356117d9816116fb565b946020939093013593505050565b634e487b7160e01b600052601160045260246000fd5b8082028115828204841417611814576118146117e7565b92915050565b80820180821115611814576118146117e7565b60006020828403121561183f57600080fd5b8151801515811461045757600080fd5b634e487b7160e01b600052603260045260246000fd5b6001600160a01b039384168152919092166020820152604081019190915260600190565b60006001820161189b5761189b6117e7565b5060010190565b81810381811115611814576118146117e7565b6000602082840312156118c757600080fd5b5051919050565b634e487b7160e01b600052601260045260246000fd5b60008261190157634e487b7160e01b600052601260045260246000fd5b500490565b634e487b7160e01b600052603160045260246000fd5b60006020828403121561192e57600080fd5b8151610457816116fb56fea2646970667358221220a1dd3f3d6c3741a68c7535dd46da8c78747afbd2eed034c9061d349082a12c6364736f6c63430008140033",
  "linkReferences": {},
  "deployedLinkReferences": {}
}